:1010C000D3EF9400EE9400401600000075080B75F5
:0F10D00009BED509FDD508FAEF1F70E41E80E1B7
:0110DF0022EE
:10000E00D3EF9400EE9400400A000000EF1F70F052
:04001E001E80ED2231
:1011580043BC807F0A7E001210C053DEFC43DE0CC5
:0A11680053BCDF53A8DF43DE202252
:10107E00E4FDFC53BCF0EF444042BCE5BC30E5FB64
:10108E0053BCDF53BCBFAFBDEFADBEFCEDAE04FF36
:01109E00222F
:0D121500E4F5C7F5C5F5C675C380F5C42224
:10111F0075C78075F50C75C5038FC4EEF5C375C61D
:0E112F005A75C6A57F0A7E001210C002121566
:10105C0075C78075F50C75C5028FC4EEF5C3AF0569
:10106C008FC275C65A75C6A57F0A7E001210C002C3
:02107C0012154B
:1010E00075C78075F50C75C5018FC4EEF5C375C65F
:1010F0005A75C6A57F0A7E001210C0AFC202121533
:10110000759418E4F593F5927591F975960EF59529
:0F11100075B2C2F5B175B48EF5B3F5CAF5C92243
:100E790043BA8012110012118C1211A512115812C5
:100E890011BC12109F1211D212101B1211E5D2AF10
:100E9900120F80900108E0700F12048D120CD87F98
:100EA9000A7E001210C080EBE4900252F07F14FE1B
:100EB9001210C0120CD8120DAE121172900107E077
:0D0EC900B401F0120FD3E4900107F080E6B1
:10101B0043BA8090FEB6E0F090FEEDE4F090FEEA6D
:10102B007470F090FEED7401F090FEF27404F0A376
:10103B007451F090FEF0E4F0A37431F090FEB5E043
:10104B004410F090FEFD7480F090FEE0E04401F05F
:01105B002272
:1011D200438E805389F0758ACD758CD4C28DD28CA2
:0311E200D2A9226D
:1011E50053D1FDE4F5D575D4DC43D10843AF2022B6
:10118C0053A23F759850438E01438E0475D7E87572
:09119C00D6FF438E1075A8102245
:1011BC0075841043844043D12075D3E875D2FF4326
:0611CC00D18043AF1022A8
:10109F00E4900000F0900081F0900101F0F0A3F0D7
:1010AF00A3F0A3F0A3F0C28490010704F0E4A3F02F
:0110BF00220E
:1011A500E4900109F090018AF090020AF0F0A3F0B2
:0711B500A3F0A3F0A3F02258
:03009300020BE27B
:100BE200C0E0C083C082C0D075D000C007E58430A9
:100BF200E12A5384FD900101E0601AA3E0FF04F0B2
:100C020074012FF582E43400F583E0F5859001014B
:100C1200E014F08007900102E4F0C284E58430E041
:100C2200335384FE900000E07021900105E0D394DC
:100C3200804002E4F0900105E02481F582E4340072
:100C4200F583E585F0900105E004F0900103E4F0FE
:0F0C5200A37405F0D007D0D0D082D083D0E03289
:03002300020C616B
:100C6100C0E0C083C082C0D075D000C007309927D2
:100C7100C29990020AE0601AA3E0FF04F0740A2FFF
:100C8100F582E43401F583E0F59990020AE014F06D
:100C9100800590020BE4F0309832C298900109E08F
:100CA100702190020EE0D394804002E4F090020E95
:100CB100E0248AF582E43401F583E599F090020E8F
:100CC100E004F090020CE4F0A37405F0D007D0D05A
:070CD100D082D083D0E03295
:03000B00020026CA
:10002600C0E0C083C082C0D0900103E07002A3E0AC
:100036006024900104E024FFF0900103E034FFF017
:10004600E07002A3E0700F900105E0D39400400633
:100056009000007401F090020CE07002A3E06024AE
:1000660090020DE024FFF090020CE034FFF0E07007
:1000760002A3E0700F90020EE0D3940040069001B8
:0D008600097401F0D0D0D082D083D0E032D8
:100F80007F157E001210E0EFF4704590021604F019
:100F9000A3743CF0A37401F0A37403F0A37401F0F4
:100FA000A3743CF0A37401F0A3F0A3740AF0A3743B
:100FB00014F0A37401F0A304F0A3740FF0A3741948
:100FC000F0A37401F0A37432F0A37401F012056D64
:030FD000020647CF
:10056D00E4FFFE12111F900216E0FDE4FFFE1210D3
:10057D005C900217E0FD7F017E0012105C90021866
:10058D00E0FD7F027E0012105C900219E0FD7F03FA
:10059D007E0012105C90021AE0FD7F047E001210A6
:1005AD005C90021BE0FD7F057E0012105C90021C2A
:1005BD00E0FD7F067E0012105C90021DE0FD7F07BE
:1005CD007E0012105C90021EE0FD7F087E0012106E
:1005DD005C90021FE0FD7F097E0012105C900220EE
:1005ED00E0FD7F0A7E0012105C900221E0FD7F0B82
:1005FD007E0012105C900222E0FD7F0C7E00121036
:10060D005C900223E0FD7F0D7E0012105C900224B1
:10061D00E0FD7F0E7E0012105C900225E0FD7F0F45
:10062D007E0012105C900226E0FD7F107E001210FD
:0A063D005C7D587F157E0002105C02
:10064700E4FFFE1210E0900216EFF07F017E001229
:1006570010E0900217EFF012113D7F027E0012109A
:10066700E0900218EFF012122D7F037E001210E0C7
:10067700900219EFF01211F57F047E001210E0903E
:10068700021AEFF07F057E001210E090021BEFF0D8
:100697007F067E001210E090021CEFF07F077E00BD
:1006A7001210E090021DEFF07F087E001210E0901C
:1006B700021EEFF07F097E001210E090021FEFF09C
:1006C7007F0A7E001210E0900220EFF07F0B7E0081
:1006D7001210E0900221EFF07F0C7E001210E090E4
:1006E7000222EFF07F0D7E001210E0900223EFF060
:1006F7007F0E7E001210E0900224EFF07F0F7E0045
:100707001210E0900225EFF07F107E001210E090AB
:050717000226EFF022B4
:050ED60090022EEFF078
:100EDB00E4900230F0A3F090022FF090022EE0FF8E
:100EEB0012107E900231E02FF0900230E03EF09035
:100EFB00022FE004F0E0C3940A40E0900230E0FEE1
:100F0B00A3E0FF7C007D0A12032E900230EEF0A3CB
:100F1B00EFF02472FFEE34FDFE7C007D1702032EF2
:0A122D00EFB40103C2A322D2A322F2
:1011F500EF75F0B8A4FF90FEF9E5F0F0A3EFF0224B
:10113D00900216E0B40111A3E0FF900215E0C39FE9
:0B114D005003C2C122D2C122D2C12235
:10117200900252E0B40112E4FF120ED6900215EF73
:0A118200F012113DE4900252F02239
:0A12220042025C000042025E000080
:03009B00020E153D
:060E1500C0E0C083C082B2
:100E1B00900252E0702690025DE004F070069002A2
:100E2B005CE004F090025CE07004A3E06464700C7E
:100E3B0090025204F090025CE4F0A3F0900107E002
:100E4B00702590025FE004F0700690025EE004F003
:100E5B0090025EE07004A3E06464700B90025EF09D
:070E6B00A3F090010704F061
:070E7200D082D083D0E032F2
:100CD800900000E064017065F07B017A00798190F2
:100CE8000105E024FEFD120D4AAD07AC0690010592
:100CF800E0FB247FF582E43400F583E0FE74802B6A
:100D0800F582E43400F583E0FBEBFFE4900105F0A5
:100D1800EDB50729ECB50625900081E0B4EB1EA3DC
:100D2800E024FC600F24FE600E24F6600D240D7094
:0D0D38000C020ABC02071C0208A4120003F2
:010D4500228B
:100DAE00900109E06401705EF07B017A01798A900E
:100DBE00020EE024FEFD120D4AAD07AC0690020EA7
:100DCE00E0FB2489F582E43401F583E0FE74882B80
:100DDE00F582E43401F583E0FBEBFFE490020EF0C4
:100DEE00EDB50722ECB5061E90018AE0B4DC17A320
:100DFE00E024FC600B24FE600A2403700902009EAE
:060E0E00020383120A1327
:010E140022BB
:100ABC009002587403F0900085A3E025E090025753
:100ACC00F0900083E0FEA3E0FDEDFF90025AEEF003
:100ADC00A3EFF090000174EBF0A37403F0900257B5
:100AEC00E0900003F0900257E0F9C313FD90025B15
:100AFC00E02DFD90025AE03400FCC3EF9DEE9C50BB
:100B0C0040E4900256F0900255F0900255E0FD90B2
:100B1C000258E0FC04F074012CF582E43400F583F7
:100B2C00EDF0900256E0FD900258E0FC04F07401E8
:100B3C002CF582E43400F583EDF00FBF00010E803C
:0A0B4C00A4E92403FD7F030207E182
:10009E009002587403F090018EA3E025E090025771
:1000AE00F090018CE0FEA3E0FDEDFF90025AEEF021
:1000BE00A3EFF090010A74DCF0A37403F0900257E2
:1000CE00E090010CF0AB07AA06900257E0F9C313BB
:1000DE00FF90025BE02FFF90025AE03400FEC3EB6C
:1000EE009FEA9E4003020216E4900256F0900255DB
:1000FE00F0EA60030201DEEBB4090040030201DE08
:10010E00900115F828287302013002013E020149C0
:10011E0002015302016002016A0201970201C60246
:10012E0001D1900217E0900255F09002160201CE16
:10013E00E4900255F09002180201CEE4900255F0C0
:10014E00900219807B90021BE0900255F090021AEB
:10015E00806EE4900255F090021C806490021FE0C5
:10016E0025E0FF90021EE0FEC41354074FFF9002DD
:10017E0020E0C433333354804F900255F0EE3333C6
:10018E003354F8FF90021D802B900223E025E0FFF0
:10019E00900222E0FEC41354074FFF900224E0C4E5
:1001AE0033333354804F900255F0EE33333354F8DB
:1001BE00FF900221E04F8014E4900255F09002254A
:1001CE00E08009E4900255F0900226E0900256F08D
:1001DE00900255E0FF900258E0FE04F0740A2EF5EE
:1001EE0082E43401F583EFF0900256E0FF9002585E
:1001FE00E0FE04F0740A2EF582E43401F583EFF08C
:10020E000BBB00010A0200D7E92403FD7F0302099C
:01021E005D82
:10071C00900084E0900210F0900085E090020FF0C1
:10072C005403900227F090020FE0540C1313543F23
:10073C00900228F090020FE05430C4540F9002291C
:10074C00F090020FE054C0C41313540390022AF02B
:10075C00900210E0540390022BF0900210E0540C25
:10076C001313543F90022CF0900226E0B4010F902A
:10077C000210E05430C4540F90022DF08006900209
:10078C002D7403F0900227E06401602AA3E0640159
:10079C006024A3E06401601EA3E064016018A3E080
:1007AC0064016012A3E06401600CA3E064016006C4
:1007BC00900211E07004C2C78002D2C7900088E09A
:1007CC00900213F0900089E0900212F090008BE000
:0507DC00900214F02260
:100383009002587403F090018EA3E025E090025789
:10039300F090018CE0FEA3E0FDEDFF90025AEEF039
:1003A300A3EFF090010A74DCF0A37404F0900257F9
:1003B300E090010CF090022EEEF0A3EFF0900257C4
:1003C300E0C313FF90025BE02FFF90025AE034007A
:1003D300FE90022EE0FCA3E0FDC39FEC9E400302CF
:1003E3000481E4900256F0900255F0EC704FED1446
:1003F300601A14602414602E1460352404703E9037
:100403000210E0900255F090020F802C121205E4C6
:10041300900255F0900211801F900213E090025554
:10042300F09002128012E4900255F09002148008BA
:10043300E4900255F0900215E0900256F0900255B8
:10044300E0FF900258E0FE04F0740A2EF582E434D3
:1004530001F583EFF0900256E0FF900258E0FE04AE
:10046300F0740A2EF582E43401F583EFF090022F45
:10047300E004F0700690022EE004F00203C0900244
:0A04830057E02403FD7F0402095D29
:1008A400900084E024FD6012146021146027146019
:1008B4005D14700302094B02095690018EE0900208
:1008C4001BF090018FE090021A02095290018FE010
:1008D40090021C807990018FE0FE540790021DF075
:1008E40090018EE0FC5401C43354E0FDEE13131365
:1008F400541F4D90021EF0EC547FC313A3F09001DB
:100904008EE0C41313135401900220F0804490012C
:100914008FE0FE5407900221F090018EE0FC540118
:10092400C43354E0FDEE131313541F4D900222F010
:10093400EC547FC313A3F090018EE0FFC413131390
:100944005401900224800790018FE0900225F01258
:09095400056D7D087F0602095DB6
:100A130090018DE0B409004003020ABB900A26F856
:100A2300282873020A41020A52020A60020A6E026D
:100A33000A7A020A85020A91020A9D020AA9900112
:100A43008EE0900217F090018FE0900216805E9086
:100A5300018FE0FF900218F012122D805190018F48
:100A6300E0FF900219F01211F5804390018EE0FD32
:100A7300A3E0FB7F03802C90018FE0FBE4FD7F0468
:100A8300802190018EE0FDA3E0FB7F05801590019E
:100A93008EE0FDA3E0FB7F06800990018FE0FBE47D
:100AA300FD7F07020F2B90018FE0900226F07D0857
:090AB3007F0612095D12056D2297
:070003009001087401F022D6
:0507E10090022EEDF076
:1007E600EF24FC600F24FE604F24F66064240D6045
:1007F600030208917B017A00790190022EE0FD1236
:100806000D4A90022FEEF0A3EFF090022FE0FEA328
:10081600E0FD90022EE0FC2402F582E43400F5832C
:10082600EDF0EEFF74012CF582E43400F583EFF071
:1008360090022EE02402804F78017C007D017B012E
:100846007A0079817E007F081202EF90022EE08006
:100856003678017C007D017B017A0079817E007FFC
:10086600061202EF7A007901120D4690022FEEF081
:10087600A3EFF090022FE0FEA3E0900008F0EE90C8
:100886000007F090022EE0900101F0D2847F027EF4
:0E089600001210C04384027F017E000210C0D9
:05095D00900230EDF0F6
:10096200EF24FC600F24FE604F24F66064240D60C7
:1009720003020A0A7B017A01790A900230E0FD1231
:100982000D4A900231EEF0A3EFF0900231E0FCA3A9
:10099200E0FDECFF900230E0FE240BF582E434012E
:1009A200F583EFF0740A2EF582E43401F583EDF05D
:1009B200900230E02402804C780A7C017D017B01A8
:1009C2007A01798A7E007F081202EF900230E0807D
:1009D20033780A7C017D017B017A01798A7E007F6E
:1009E200061202EF7A01790A120D46900231EEF0F8
:1009F200A3EFF0900231E0FEA3E0900110F0EEF0E0
:100A0200900230E090020AF0D2997F017E0002103B
:010A1200C023
:040D46007B017D06AA
:050D4A00900241EDF0F4
:100D4F0074FFA3F0A3F0120315FF900242E0F0A38B
:100D5F00E06FF0E4FD900242E0FEA3E0FF30E01907
:100D6F00EEC313FEEF13FFEE64A0FEEF6401FF90DE
:100D7F000242EEF0A3EFF0800B900242E0C313F0BB
:100D8F00A3E013F00DEDB408CC740129F9E43AFA9D
:0E0D9F00900241E014F070AEA3E0FEA3E0FF6E
:010DAD002223
:10120500209706E4900211F0229002117401F02259
:10048D0090022E74EBF0A37410F0E4A3F0A3F0A38C
:10049D00F0A37405F0A3740AF090021BE0900235EE
:1004AD00F090021AE0900236F0E4A3F090021CE006
:1004BD00900238F090021FE025E0FF90021EE0FE52
:1004CD00C41354074FFF900220E0C43333335480DC
:1004DD004F900239F0EE33333354F8FF90021DE0A4
:1004ED004F90023AF0900223E025E0FF900222E0C7
:1004FD00FEC41354074FFF900224E0C4333333542A
:10050D00804F90023BF0EE33333354F8FF900221CD
:10051D00E04F90023CF0E4A3F0900225E090023E03
:10052D00F07B017A02792E7D11120D4AAC06EC900A
:10053D00023FF0A3EFF078017C007D017A02792E65
:10054D007E007F131202EF9001017413F0D2847FAD
:10055D00027E001210C04384027F017E000210C093
:100F2B0090022E74EBF0A37406F0E4A3F0A3EFF0A1
:100F3B00A3EDF0A3EBF07B017A02792E7D06120D67
:100F4B004AAC06EC900234F0A3EFF078017C007D04
:100F5B00017A02792E7E007F081202EF9001017454
:100F6B0008F0D2847F027E001210C04384027F01FE
:050F7B007E000210C021
:100FD30090022E74EBF0A37404F0E4A3F0A3F0A347
:100FE300F0A37404F0A314F0A374E7F078017C0079
:100FF3007D017B017A02792E7E007F081202EF9039
:1010030001017408F0D2847F027E001210C0438471
:08101300027F017E000210C003
:03000000020B569A
:0C0B5600787FE4F6D8FD758109020B9D44
:10021F00E709F608DFFA8046E709F208DFFA803EC1
:10022F0088828C83E709F0A3DFFA8032E309F608AE
:10023F00DFFA8078E309F208DFFA807088828C8316
:10024F00E309F0A3DFFA806489828A83E0A3F608CA
:10025F00DFFA805889828A83E0A3F208DFFA804CA4
:10026F0080D280FA80C680D4806980F2803380107B
:10027F0080A680EA809A80A880DA80E280CA8033E4
:10028F0089828A83ECFAE493A3C8C582C8CCC5835C
:10029F00CCF0A3C8C582C8CCC583CCDFE9DEE7802C
:1002AF000D89828A83E493A3F608DFF9ECFAA9F0AB
:1002BF00EDFB2289828A83ECFAE0A3C8C582C8CC01
:1002CF00C583CCF0A3C8C582C8CCC583CCDFEADE1A
:1002DF00E880DB89828A83E493A3F208DFF980CC7C
:1002EF0088F0EF60010E4E60C388F0ED2402B40475
:1002FF000050B9F582EB2402B4040050AF2323451C
:06030F00822390026F73CF
:10031500BB010689828A83E0225002E722BBFE02E6
:09032500E32289828A83E4932219
:10032E00BC000BBE0029EF8DF084FFADF022E4CCB3
:10033E00F875F008EF2FFFEE33FEEC33FCEE9DEC7C
:10034E00984005FCEE9DFE0FD5F0E9E4CEFD22EDC2
:10035E00F8F5F0EE8420D21CFEADF075F008EF2F0C
:10036E00FFED33FD4007985006D5F0F222C398FDFD
:05037E000FD5F0EA229A
:100B6200020E79E493A3F8E493A34003F68001F222
:100B720008DFF48029E493A3F85407240CC8C33394
:100B8200C4540F4420C8834004F456800146F6DF63
:100B9200E4800B0102040810204080901222E47EBF
:100BA200019360BCA3FF543F30E509541FFEE49358
:100BB200A360010ECF54C025E060A840B8E493A31F
:100BC200FAE493A3F8E493A3C8C582C8CAC583CA4A
:100BD200F0A3C8C582C8CAC583CADFE9DEE780BE02
:01122C0000C1
:00000001FF
