:1010FF00D3EF9400EE9400401600000075080B75B6
:0F110F0009BED509FDD508FAEF1F70E41E80E177
:01111E0022AE
:10000E00D3EF9400EE9400400A000000EF1F70F052
:04001E001E80ED2231
:1011970043BC807F0A7E001210FF53DEFC43DE0C47
:0A11A70053BCDF53A8DF43DE202213
:1010BD00E4FDFC53BCF0EF444042BCE5BC30E5FB25
:1010CD0053BCDF53BCBFAFBDEFADBEFCEDAE04FFF7
:0110DD0022F0
:0D125400E4F5C7F5C5F5C675C380F5C422E5
:10115E0075C78075F50C75C5038FC4EEF5C375C6DE
:0E116E005A75C6A57F0A7E001210FF021254A9
:10109B0075C78075F50C75C5028FC4EEF5C3AF052A
:1010AB008FC275C65A75C6A57F0A7E001210FF0245
:0210BB001254CD
:10111F0075C78075F50C75C5018FC4EEF5C375C61F
:10112F005A75C6A57F0A7E001210FFAFC202125475
:10113F00759418E4F593F5927591F975960EF595EA
:0F114F0075B2C2F5B175B48EF5B3F5CAF5C92204
:100F0D0043BA8012113F1211CB1211E41211971234
:100F1D0011FB1210DE12121112105A121224D2AF3E
:100F2D00120FBF900108E0700F12049F120D6C7F1D
:100F3D000A7E001210FF80EBE4900252F07F14FE47
:100F4D001210FF120D6C120E421211B1900107E03A
:0D0F5D00B401F0121012E4900107F080E6DC
:10105A0043BA8090FEB6E0F090FEEDE4F090FEEA2E
:10106A007470F090FEED7401F090FEF27404F0A337
:10107A007451F090FEF0E4F0A37431F090FEB5E004
:10108A004410F090FEFD7480F090FEE0E04401F020
:01109A002233
:10121100438E805389F0758ACD758CD4C28DD28C62
:03122100D2A9222D
:1012240053D1FDE4F5D575D4DC43D10843AF202276
:1011CB0053A23F759850438E01438E0475D7E87533
:0911DB00D6FF438E1075A8102206
:1011FB0075841043844043D12075D3E875D2FF43E7
:06120B00D18043AF102268
:1010DE00E4900000F0900081F0900101F0F0A3F098
:1010EE00A3F0A3F0A3F0C28490010704F0E4A3F0F0
:0110FE0022CF
:1011E400E4900109F090018AF090020AF0F0A3F073
:0711F400A3F0A3F0A3F02219
:03009300020C76E6
:100C7600C0E0C083C082C0D075D000C007E5843014
:100C8600E12A5384FD900101E0601AA3E0FF04F01D
:100C960074012FF582E43400F583E0F585900101B7
:100CA600E014F08007900102E4F0C284E58430E0AD
:100CB600335384FE900000E07021900105E0D39448
:100CC600804002E4F0900105E02481F582E43400DE
:100CD600F583E585F0900105E004F0900103E4F06A
:0F0CE600A37405F0D007D0D0D082D083D0E032F5
:03002300020CF5D7
:100CF500C0E0C083C082C0D075D000C0073099273E
:100D0500C29990020AE0601AA3E0FF04F0740A2F6A
:100D1500F582E43401F583E0F59990020AE014F0D8
:100D2500800590020BE4F0309832C298900109E0FA
:100D3500702190020EE0D394804002E4F090020E00
:100D4500E0248AF582E43401F583E599F090020EFA
:100D5500E004F090020CE4F0A37405F0D007D0D0C5
:070D6500D082D083D0E03200
:03000B00020026CA
:10002600C0E0C083C082C0D0900103E07002A3E0AC
:100036006024900104E024FFF0900103E034FFF017
:10004600E07002A3E0700F900105E0D39400400633
:100056009000007401F090020CE07002A3E06024AE
:1000660090020DE024FFF090020CE034FFF0E07007
:1000760002A3E0700F90020EE0D3940040069001B8
:0D008600097401F0D0D0D082D083D0E032D8
:100FBF007F157E0012111FEFF4704590021604F09A
:100FCF00A3743CF0A37401F0A37403F0A37401F0B5
:100FDF00A3743CF0A37401F0A3F0A3740AF0A374FC
:100FEF0014F0A37401F0A304F0A3740FF0A3741909
:100FFF00F0A37401F0A37432F0A37401F012057F13
:03100F000206597D
:10057F00E4FFFE12115E900216E0FDE4FFFE121082
:10058F009B900217E0FD7F017E0012109B900218D6
:10059F00E0FD7F027E0012109B900219E0FD7F03A9
:1005AF007E0012109B90021AE0FD7F047E00121055
:1005BF009B90021BE0FD7F057E0012109B90021C9A
:1005CF00E0FD7F067E0012109B90021DE0FD7F076D
:1005DF007E0012109B90021EE0FD7F087E0012101D
:1005EF009B90021FE0FD7F097E0012109B9002205E
:1005FF00E0FD7F0A7E0012109B900221E0FD7F0B31
:10060F007E0012109B900222E0FD7F0C7E001210E4
:10061F009B900223E0FD7F0D7E0012109B90022421
:10062F00E0FD7F0E7E0012109B900225E0FD7F0FF4
:10063F007E0012109B900226E0FD7F107E001210AC
:0A064F009B7D587F157E0002109B72
:10065900E4FFFE12111F900216EFF07F017E0012D7
:10066900111F900217EFF012117C7F027E00121108
:100679001F900218EFF012126C7F037E0012111FF7
:10068900900219EFF01212347F047E0012111F90AC
:10069900021AEFF07F057E0012111F90021BEFF086
:1006A9007F067E0012111F90021CEFF07F077E006B
:1006B90012111F90021DEFF07F087E0012111F908A
:1006C900021EEFF07F097E0012111F90021FEFF04A
:1006D9007F0A7E0012111F900220EFF07F0B7E002F
:1006E90012111F900221EFF07F0C7E0012111F9052
:1006F9000222EFF07F0D7E0012111F900223EFF00E
:100709007F0E7E0012111F900224EFF07F0F7E00F2
:1007190012111F900225EFF07F107E0012111F9019
:050729000226EFF022A2
:050BF40090022EEFF05D
:100BF900E4900230F0A3F090022FF090022EE0FF73
:100C09001210BD900231E02FF0900230E03EF090DA
:100C1900022FE004F0E0C3940A40E0900230E0FEC5
:100C2900A3E0FF7C007D0A120340900230EEF0A39E
:100C3900EFF0C39484EE94044023E0247CFF9002F7
:100C490030E034FBFE7C007D6412032E7C027D6F54
:100C5900120340900232EEF0A3EFF08007E4900215
:0C0C690032F0A3F0900232E0FEA3E0FFA6
:010C7500225C
:0A126C00EFB40103C2A322D2A322B3
:10123400EF75F0B8A4FF90FEF9E5F0F0A3EFF0220B
:10117C00900216E0B40111A3E0FF900215E0C39FAA
:0B118C005003C2C122D2C122D2C122F6
:1011B100900252E0B40112E4FF120BF4900215EF19
:0A11C100F012117CE4900252F022BB
:0A12610042025C000042025E000041
:03009B00020EA9A9
:060EA900C0E0C083C0821E
:100EAF00900252E0702690025DE004F0700690020E
:100EBF005CE004F090025CE07004A3E06464700CEA
:100ECF0090025204F090025CE4F0A3F0900107E06E
:100EDF00702590025FE004F0700690025EE004F06F
:100EEF0090025EE07004A3E06464700B90025EF009
:070EFF00A3F090010704F0CD
:070F0600D082D083D0E0325D
:100D6C00900000E064017065F07B017A007981905D
:100D7C000105E024FEFD120DDEAD07AC0690010569
:100D8C00E0FB247FF582E43400F583E0FE74802BD5
:100D9C00F582E43400F583E0FBEBFFE4900105F011
:100DAC00EDB50729ECB50625900081E0B4EB1EA348
:100DBC00E024FC600F24FE600E24F6600D240D7000
:0D0DCC000C020ACE02072E0208B612000328
:010DD90022F7
:100E4200900109E06401705EF07B017A01798A9079
:100E5200020EE024FEFD120DDEAD07AC0690020E7E
:100E6200E0FB2489F582E43401F583E0FE74882BEB
:100E7200F582E43401F583E0FBEBFFE490020EF02F
:100E8200EDB50722ECB5061E90018AE0B4DC17A38B
:100E9200E024FC600B24FE600A2403700902009E19
:060EA200020395120A256F
:010EA8002227
:100ACE009002587403F0900085A3E025E090025741
:100ADE00F0900083E0FEA3E0FDEDFF90025AEEF0F1
:100AEE00A3EFF090000174EBF0A37403F0900257A3
:100AFE00E0900003F0900257E0F9C313FD90025B03
:100B0E00E02DFD90025AE03400FCC3EF9DEE9C50A8
:100B1E0040E4900256F0900255F0900255E0FD90A0
:100B2E000258E0FC04F074012CF582E43400F583E5
:100B3E00EDF0900256E0FD900258E0FC04F07401D6
:100B4E002CF582E43400F583EDF00FBF00010E802A
:0A0B5E00A4E92403FD7F030207F35E
:10009E009002587403F090018EA3E025E090025771
:1000AE00F090018CE0FEA3E0FDEDFF90025AEEF021
:1000BE00A3EFF090010A74DCF0A37403F0900257E2
:1000CE00E090010CF0AB07AA06900257E0F9C313BB
:1000DE00FF90025BE02FFF90025AE03400FEC3EB6C
:1000EE009FEA9E4003020216E4900256F0900255DB
:1000FE00F0EA60030201DEEBB4090040030201DE08
:10010E00900115F828287302013002013E020149C0
:10011E0002015302016002016A0201970201C60246
:10012E0001D1900217E0900255F09002160201CE16
:10013E00E4900255F09002180201CEE4900255F0C0
:10014E00900219807B90021BE0900255F090021AEB
:10015E00806EE4900255F090021C806490021FE0C5
:10016E0025E0FF90021EE0FEC41354074FFF9002DD
:10017E0020E0C433333354804F900255F0EE3333C6
:10018E003354F8FF90021D802B900223E025E0FFF0
:10019E00900222E0FEC41354074FFF900224E0C4E5
:1001AE0033333354804F900255F0EE33333354F8DB
:1001BE00FF900221E04F8014E4900255F09002254A
:1001CE00E08009E4900255F0900226E0900256F08D
:1001DE00900255E0FF900258E0FE04F0740A2EF5EE
:1001EE0082E43401F583EFF0900256E0FF9002585E
:1001FE00E0FE04F0740A2EF582E43401F583EFF08C
:10020E000BBB00010A0200D7E92403FD7F0302099C
:01021E006F70
:10072E00900084E0900210F0900085E090020FF0AF
:10073E005403900227F090020FE0540C1313543F11
:10074E00900228F090020FE05430C4540F9002290A
:10075E00F090020FE054C0C41313540390022AF019
:10076E00900210E0540390022BF0900210E0540C13
:10077E001313543F90022CF0900226E0B4010F9018
:10078E000210E05430C4540F90022DF080069002F7
:10079E002D7403F0900227E06401602AA3E0640147
:1007AE006024A3E06401601EA3E064016018A3E06E
:1007BE0064016012A3E06401600CA3E064016006B2
:1007CE00900211E07004C2C78002D2C7900088E088
:1007DE00900213F0900089E0900212F090008BE0EE
:0507EE00900214F0224E
:100395009002587403F090018EA3E025E090025777
:1003A500F090018CE0FEA3E0FDEDFF90025AEEF027
:1003B500A3EFF090010A74DCF0A37404F0900257E7
:1003C500E090010CF090022EEEF0A3EFF0900257B2
:1003D500E0C313FF90025BE02FFF90025AE0340068
:1003E500FE90022EE0FCA3E0FDC39FEC9E400302BD
:1003F5000493E4900256F0900255F0EC704FED1422
:10040500601A14602414602E1460352404703E9024
:100415000210E0900255F090020F802C121244E475
:10042500900255F0900211801F900213E090025542
:10043500F09002128012E4900255F09002148008A8
:10044500E4900255F0900215E0900256F0900255A6
:10045500E0FF900258E0FE04F0740A2EF582E434C1
:1004650001F583EFF0900256E0FF900258E0FE049C
:10047500F0740A2EF582E43401F583EFF090022F33
:10048500E004F0700690022EE004F00203D2900220
:0A04950057E02403FD7F0402096F05
:1008B600900084E024FD6012146021146027146007
:1008C6005D14700302095D02096890018EE09002D2
:1008D6001BF090018FE090021A02096490018FE0EC
:1008E60090021C807990018FE0FE540790021DF063
:1008F60090018EE0FC5401C43354E0FDEE13131353
:10090600541F4D90021EF0EC547FC313A3F09001C8
:100916008EE0C41313135401900220F0804490011A
:100926008FE0FE5407900221F090018EE0FC540106
:10093600C43354E0FDEE131313541F4D900222F0FE
:10094600EC547FC313A3F090018EE0FFC41313137E
:100956005401900224800790018FE0900225F01246
:09096600057F7D087F0602096F80
:100A250090018DE0B409004003020ACD900A38F820
:100A3500282873020A53020A64020A72020A800213
:100A45000A8C020A97020AA3020AAF020ABB9001A6
:100A55008EE0900217F090018FE0900216805E9074
:100A6500018FE0FF900218F012126C805190018FF7
:100A7500E0FF900219F0121234804390018EE0FDE0
:100A8500A3E0FB7F03802C90018FE0FBE4FD7F0456
:100A9500802190018EE0FDA3E0FB7F05801590018C
:100AA5008EE0FDA3E0FB7F06800990018FE0FBE46B
:100AB500FD7F07020F6A90018FE0900226F07D0806
:090AC5007F0612096F12057F2261
:070003009001087401F022D6
:0507F30090022EEDF064
:1007F800EF24FC600F24FE604F24F66064240D6033
:10080800030208A37B017A00790190022EE0FD1211
:100818000DDE90022FEEF0A3EFF090022FE0FEA382
:10082800E0FD90022EE0FC2402F582E43400F5831A
:10083800EDF0EEFF74012CF582E43400F583EFF05F
:1008480090022EE02402804F78017C007D017B011C
:100858007A0079817E007F081202EF90022EE080F4
:100868003678017C007D017B017A0079817E007FEA
:10087800061202EF7A007901120DDA90022FEEF0DB
:10088800A3EFF090022FE0FEA3E0900008F0EE90B6
:100898000007F090022EE0900101F0D2847F027EE2
:0E08A800001210FF4384027F017E000210FF49
:05096F00900230EDF0E4
:10097400EF24FC600F24FE604F24F66064240D60B5
:1009840003020A1C7B017A01790A900230E0FD120D
:100994000DDE900231EEF0A3EFF0900231E0FCA303
:1009A400E0FDECFF900230E0FE240BF582E434011C
:1009B400F583EFF0740A2EF582E43401F583EDF04B
:1009C400900230E02402804C780A7C017D017B0196
:1009D4007A01798A7E007F081202EF900230E0806B
:1009E40033780A7C017D017B017A01798A7E007F5C
:1009F400061202EF7A01790A120DDA900231EEF052
:100A0400A3EFF0900231E0FEA3E0900110F0EEF0CD
:100A1400900230E090020AF0D2997F017E00021029
:010A2400FFD2
:040DDA007B017D0616
:050DDE00900241EDF060
:100DE30074FFA3F0A3F0120315FF900242E0F0A3F7
:100DF300E06FF0E4FD900242E0FEA3E0FF30E01973
:100E0300EEC313FEEF13FFEE64A0FEEF6401FF9049
:100E13000242EEF0A3EFF0800B900242E0C313F026
:100E2300A3E013F00DEDB408CC740129F9E43AFA08
:0E0E3300900241E014F070AEA3E0FEA3E0FFD9
:010E4100228E
:10124400209706E4900211F0229002117401F0221A
:10049F0090022E74EBF0A37410F0E4A3F0A3F0A37A
:1004AF00F0A37405F0A3740AF090021BE0900235DC
:1004BF00F090021AE0900236F0E4A3F090021CE0F4
:1004CF00900238F090021FE025E0FF90021EE0FE40
:1004DF00C41354074FFF900220E0C43333335480CA
:1004EF004F900239F0EE33333354F8FF90021DE092
:1004FF004F90023AF0900223E025E0FF900222E0B5
:10050F00FEC41354074FFF900224E0C43333335417
:10051F00804F90023BF0EE33333354F8FF900221BB
:10052F00E04F90023CF0E4A3F0900225E090023EF1
:10053F00F07B017A02792E7D11120DDEAC06EC9064
:10054F00023FF0A3EFF078017C007D017A02792E53
:10055F007E007F131202EF9001017413F0D2847F9B
:10056F00027E001210FF4384027F017E000210FF03
:100F6A0090022E74EBF0A37406F0E4A3F0A3EFF062
:100F7A00A3EDF0A3EBF07B017A02792E7D06120D28
:100F8A00DEAC06EC900234F0A3EFF078017C007D31
:100F9A00017A02792E7E007F081202EF9001017415
:100FAA0008F0D2847F027E001210FF4384027F0180
:050FBA007E000210FFA3
:1010120090022E74EBF0A37404F0E4A3F0A3F0A307
:10102200F0A37404F0A314F0A374E7F078017C0039
:101032007D017B017A02792E7E007F081202EF90F9
:1010420001017408F0D2847F027E001210FF4384F3
:08105200027F017E000210FF85
:03000000020B6888
:0C0B6800787FE4F6D8FD758109020BAF20
:10021F00E709F608DFFA8046E709F208DFFA803EC1
:10022F0088828C83E709F0A3DFFA8032E309F608AE
:10023F00DFFA8078E309F208DFFA807088828C8316
:10024F00E309F0A3DFFA806489828A83E0A3F608CA
:10025F00DFFA805889828A83E0A3F208DFFA804CA4
:10026F0080D280FA80C680D4806980F2803380107B
:10027F0080A680EA809A80A880DA80E280CA8033E4
:10028F0089828A83ECFAE493A3C8C582C8CCC5835C
:10029F00CCF0A3C8C582C8CCC583CCDFE9DEE7802C
:1002AF000D89828A83E493A3F608DFF9ECFAA9F0AB
:1002BF00EDFB2289828A83ECFAE0A3C8C582C8CC01
:1002CF00C583CCF0A3C8C582C8CCC583CCDFEADE1A
:1002DF00E880DB89828A83E493A3F208DFF980CC7C
:1002EF0088F0EF60010E4E60C388F0ED2402B40475
:1002FF000050B9F582EB2402B4040050AF2323451C
:06030F00822390026F73CF
:10031500BB010689828A83E0225002E722BBFE02E6
:09032500E32289828A83E4932219
:10032E00EF8DF0A4A8F0CF8CF0A428CE8DF0A42EE3
:02033E00FE229D
:10034000BC000BBE0029EF8DF084FFADF022E4CCA1
:10035000F875F008EF2FFFEE33FEEC33FCEE9DEC6A
:10036000984005FCEE9DFE0FD5F0E9E4CEFD22EDB0
:10037000F8F5F0EE8420D21CFEADF075F008EF2FFA
:10038000FFED33FD4007985006D5F0F222C398FDEB
:050390000FD5F0EA2288
:100B7400020F0DE493A3F8E493A34003F68001F27B
:100B840008DFF48029E493A3F85407240CC8C33382
:100B9400C4540F4420C8834004F456800146F6DF51
:100BA400E4800B0102040810204080901261E47E6E
:100BB400019360BCA3FF543F30E509541FFEE49346
:100BC400A360010ECF54C025E060A840B8E493A30D
:100BD400FAE493A3F8E493A3C8C582C8CAC583CA38
:100BE400F0A3C8C582C8CAC583CADFE9DEE780BEF0
:01126B000082
:00000001FF
