:1016BF00D3EF9400EE9400401600000075080B75F0
:0F16CF0009BED509FDD508FAEF1F70E41E80E1B2
:0116DE0022E9
:10000E00D3EF9400EE9400400A000000EF1F70F052
:04001E001E80ED2231
:1017730043BC807F0A7E001216BF53DEFC43DE0C9F
:0A17830053BCDF53A8DF43DE202231
:10167D00E4FDFC53BCF0EF444042BCE5BC30E5FB5F
:10168D0053BCDF53BCBFAFBDEFADBEFCEDAE04FF31
:01169D00222A
:0D183F00E4F5C7F5C5F5C675C380F5C422F4
:10171E0075C78075F50C75C5038FC4EEF5C375C618
:0E172E005A75C6A57F0A7E001216BF02183F2C
:10165B0075C78075F50C75C5028FC4EEF5C3AF0564
:10166B008FC275C65A75C6A57F0A7E001216BF02B9
:02167B00183F16
:1016DF0075C78075F50C75C5018FC4EEF5C375C65A
:1016EF005A75C6A57F0A7E001216BFAFC202183FF9
:1016FF00759418E4F593F5927591F975960EF59525
:0F170F0075B2C2F5B175B48EF5B3F5CAF5C9223E
:1014390043BA801216FF1217A71217C01217731298
:1014490017D712169E1217ED1215DB121800D2AF1C
:10145900121540900108E0700F120B2C1213007F37
:101469000A7E001216BF80EBE490029CF07F14FE06
:101479001216BF12130012136E12178D900107E096
:0D148900B401F0121593E4900107F080E625
:1015DB0043BA8090FEB6E0F090FEEDE4F090FEEAA8
:1015EB007470F090FEED7401F090FEF27404F0A3B1
:1015FB007451F090FEF0E4F0A37431F090FEB5E07E
:10160B004410F090FEFD7480F090FEE0E04401F099
:01161B0022AC
:1017ED00438E805389F0758ACD758CD4C28DD28C81
:0317FD00D2A9224C
:1018000053D1FDE4F5D575D4DC43D10843AF202294
:1017A70053A23F759850438E01438E0475D7E87551
:0917B700D6FF438E1075A8102224
:1017D70075841043844043D12075D3E875D2FF4305
:0617E700D18043AF102287
:0418300041020F0062
:10169E00E4900000F0900081F0900101F0F0A3F0D2
:1016AE00A3F0A3F0A3F0C28490010704F0E4A3F02A
:0116BE002209
:1017C000E4900109F090018AF090020AF0F0A3F091
:0717D000A3F0A3F0A3F02237
:03009300021281D5
:10128100C0E0C083C082C0D075D000C007E5843003
:10129100E12A5384FD900101E0601AA3E0FF04F00C
:1012A10074012FF582E43400F583E0F585900101A6
:1012B100E014F08007900102E4F0C284E58430E09C
:1012C100335384FE900000E07021900105E0D39437
:1012D100804002E4F0900105E02481F582E43400CD
:1012E100F583E585F0900105E004F0900103E4F059
:0F12F100A37405F0D007D0D0D082D083D0E032E4
:03000B0002161CBE
:10161C00C0E0C083C082C0D0900103E07002A3E0A0
:10162C006024900104E024FFF0900103E034FFF00B
:10163C00E07002A3E0700F900105E0D39400400627
:0F164C009000007401F0D0D0D082D083D0E03273
:0300230002173C85
:10173C00C0E0C083C082309907C29990020FE4F0D8
:0C174C00309802C298D082D083D0E032E6
:0B184C008F9990020FE070FA04F02268
:101540007F157E001216DFEFF4704590027604F0EE
:10155000A37428F0A37401F0A37403F0A37401F042
:10156000A37428F0A37401F0A3F0A3740AF0A37489
:1015700014F0A37401F0A304F0A3740FF0A3741982
:10158000F0A37401F0A37432F0A37401F0120C0CF8
:03159000020CE664
:100C0C00E4FFFE12171E900276E0FDE4FFFE1216C2
:100C1C005B900277E0FD7F017E0012165B900278FC
:100C2C00E0FD7F027E0012165B900279E0FD7F03EF
:100C3C007E0012165B90027AE0FD7F047E00121695
:100C4C005B90027BE0FD7F057E0012165B90027CC0
:100C5C00E0FD7F067E0012165B90027DE0FD7F07B3
:100C6C007E0012165B90027EE0FD7F087E0012165D
:100C7C005B90027FE0FD7F097E0012165B90028084
:100C8C00E0FD7F0A7E0012165B900281E0FD7F0B77
:100C9C007E0012165B900282E0FD7F0C7E00121625
:100CAC005B900283E0FD7F0D7E0012165B90028448
:100CBC00E0FD7F0E7E0012165B900285E0FD7F0F3B
:100CCC007E0012165B900286E0FD7F107E001216ED
:0A0CDC005B7D587F157E0002165B59
:100CE600E4FFFE1216DF900276EFF07F017E00121F
:100CF60016DF900277EFF01217587F027E00121669
:100D0600DF900278EFF01218577F037E001216DF8D
:100D1600900279EFF01218107F047E001216DF9011
:100D2600027AEFF07F057E001216DF90027BEFF06D
:100D36007F067E001216DF90027CEFF07F077E00B2
:100D46001216DF90027DEFF07F087E001216DF900C
:100D5600027EEFF07F097E001216DF90027FEFF031
:100D66007F0A7E001216DF900280EFF07F0B7E0076
:100D76001216DF900281EFF07F0C7E001216DF90D4
:100D86000282EFF07F0D7E001216DF900283EFF0F5
:100D96007F0E7E001216DF900284EFF07F0F7E003A
:100DA6001216DF900285EFF07F107E001216DF909C
:050DB6000286EFF022AF
:101496005468652076616C7565206F6620636865A3
:1014A600636B2069733A2000256420005468652028
:1014B60076616C7565206F66206164635F76616C2A
:1014C600206973202564200D0A0054686520766122
:1014D6006C7573206F662074656D702069732025A6
:0514E60064200D0A0066
:10091300900247EBF0A3EAF0A3E9F0A3ECF0A3ED18
:01092300F0E3
:10092400E4A3F090024BE024FFFF90024AE034FF7E
:10093400FE90024CE0C39FE49E4003020A21E4A31C
:10094400F090024CE0FFC390024BE09FFF90024AFC
:10095400E09400CF24FFCF34FFFE90024DE0C39F0C
:10096400E49E4003020A18E0FD2401FFE433FEEF95
:1009740025E0FFEE33FE900247E0FBA3E0FAA3E09C
:10098400F98F828E83120579FFAEF075F002EDA423
:10099400F58285F083120579D39FE5F09E406C9033
:1009A4000247A3A390024DE0FF75F002A4F58285EF
:1009B400F083120579FD90024EE5F0F0A3EDF0EF1F
:1009C4002401FFE433FEEF25E0FFEE338F82F5834D
:1009D400120579FFAEF090024DE075F002A4F582A5
:1009E40085F083EE8FF01205B190024EE0FCA3E097
:1009F400FD90024DE02401FFE433FEEF25E0FFEE1D
:100A0400338F82F583EC8DF01205B190024DE00432
:0D0A1400F002094590024CE004F0020927B1
:010A210022B2
:0507E400900210EFF08F
:1007E900E4900213F0A3F0900211F0900210E0FFE0
:1007F90012167D900211E025E02417F582E43402F7
:10080900F583EEF0A3EFF0900211E004F0E0C39459
:100819001840D87B017A0279177D187C00120913D8
:100829007F06EF25E02417F582E43402F583E0FC26
:10083900A3E0FD900214E02DF0900213E03CF00FCC
:10084900EFB412DE900213E0FEA3E0FF7C007D0C02
:10085900120524900213EEF0A3EFF07BFF7A1479CE
:1008690096120109E4900212F0900212E0FFC3947B
:100879001050297BFF7A1479AEEF25E02417F58211
:10088900E43402F583E0FFA3E090024ACFF0A3EF3E
:10089900F0120109900212E004F080CD7BFF7A1476
:1008A90079B2900213E0FFA3E090024ACFF0A3EFE0
:1008B900F0120109900213E0FEA3E0FFC39484EE55
:1008C9009404401EEF247CFFEE34FBFE7C007D6423
:1008D9001205127C027D6F120524A3EEF0A3EFF03E
:1008E9008007E4900215F0A3F07BFF7A1479D09089
:1008F9000215E0FFA3E090024ACFF0A3EFF0120146
:0909090009900215E0FEA3E0FFD5
:0109120022C2
:0A185700EFB40103C2A322D2A322C2
:10181000EF75F0B8A4FF90FEF9E5F0F0A3EFF02229
:10175800900276E0B40111A3E0FF900275E0C39F08
:0B1768005003C2C122D2C122D2C12214
:10178D0090029CE0B40112E4FF1207E4900275EFA1
:0A179D00F0121758E490029CF022AD
:0A1834004202A600004202A80000D4
:03009B000213D578
:0613D500C0E0C083C082ED
:1013DB0090029CE070269002A7E004F07006900249
:1013EB00A6E004F09002A6E07004A3E064C8700CC1
:1013FB0090029C04F09002A6E4F0A3F0900107E0A9
:10140B0070259002A9E004F070069002A8E004F0A9
:10141B009002A8E07004A3E06464700B9002A8F043
:07142B00A3F090010704F09B
:07143200D082D083D0E0322C
:10130000900000E064017065F07B017A00798190C3
:101310000105E024FEFD12002AAD07AC0690010590
:10132000E0FB247FF582E43400F583E0FE74802B3B
:10133000F582E43400F583E0FBEBFFE4900105F077
:10134000EDB50729ECB50625900081E0B4EB1EA3AE
:10135000E024FC600F24FE600E24F6600D240D7066
:0D1360000C02115B020DBB020F43120003D3
:01136D00225D
:10136E00900109E06401705EF07B017A01798A9048
:10137E00020EE024FEFD12002AAD07AC0690020E0E
:10138E00E0FB2489F582E43401F583E0FE74882BBA
:10139E00F582E43401F583E0FBEBFFE490020EF0FE
:1013AE00EDB50722ECB5061E90018AE0B4DC17A35A
:1013BE00E024FC600B24FE600A240370090206631D
:0613CE00020A221210B217
:0113D40022F6
:10115B009002A27403F0900085A3E025E09002A119
:10116B00F0900083E0FEA3E0FDEDFF9002A4EEF013
:10117B00A3EFF090000174EBF0A37403F09002A1C5
:10118B00E0900003F09002A1E0F9C313FD9002A5DB
:10119B00E02DFD9002A4E03400FCC3EF9DEE9C50CB
:1011AB0040E49002A0F090029FF090029FE0FD902F
:1011BB0002A2E0FC04F074012CF582E43400F58308
:1011CB00EDF09002A0E0FD9002A2E0FC04F07401AF
:1011DB002CF582E43400F583EDF00FBF00010E8097
:0A11EB00A4E92403FD7F03020E8037
:100663009002A27403F090018EA3E025E09002A112
:10067300F090018CE0FEA3E0FDEDFF9002A4EEF00C
:10068300A3EFF090010A74DCF0A37403F09002A1CD
:10069300E090010CF0AB07AA069002A1E0F9C313A6
:1006A300FF9002A5E02FFF9002A4E03400FEC3EB0D
:1006B3009FEA9E40030207DBE49002A0F090029FB2
:1006C300F0EA60030207A3EBB4090040030207A3A7
:1006D3009006DAF82828730206F502070302070ECC
:1006E30002071802072502072F02075C02078B0285
:1006F3000796900277E090029FF0900276020793AC
:10070300E490029FF0900278020793E490029FF036
:10071300900279807B90027BE090029FF090027AB6
:10072300806EE490029FF090027C806490027FE0F0
:1007330025E0FF90027EE0FEC41354074FFF9002B2
:1007430080E0C433333354804F90029FF0EE333351
:100753003354F8FF90027D802B900283E025E0FF65
:10076300900282E0FEC41354074FFF900284E0C45A
:1007730033333354804F90029FF0EE33333354F8C6
:10078300FF900281E04F8014E490029FF090028575
:10079300E08009E490029FF0900286E09002A0F0CE
:1007A30090029FE0FF9002A2E0FE04F0740A2EF58F
:1007B30082E43401F583EFF09002A0E0FF9002A2FF
:1007C300E0FE04F0740A2EF582E43401F583EFF0C1
:1007D3000BBB00010A02069CE92403FD7F03020F01
:0107E300FC19
:100DBB00900084E0900270F0900085E090026FF05C
:100DCB005403900287F090026FE0540C1313543FBE
:100DDB00900288F090026FE05430C4540F90028957
:100DEB00F090026FE054C0C41313540390028AF0C6
:100DFB00900270E0540390028BF0900270E0540C60
:100E0B001313543F90028CF0900286E0B4010F90C4
:100E1B000270E05430C4540F90028DF080069002A3
:100E2B008D7403F0900287E06401602AA3E06401F3
:100E3B006024A3E06401601EA3E064016018A3E0DA
:100E4B0064016012A3E06401600CA3E0640160061E
:100E5B00900271E07004C2C78002D2C7900088E094
:100E6B00900273F0900089E0900272F090008BE09A
:050E7B00900274F0225A
:100A22009002A27403F090018EA3E025E09002A14F
:100A3200F090018CE0FEA3E0FDEDFF9002A4EEF049
:100A4200A3EFF090010A74DCF0A37404F09002A109
:100A5200E090010CF0900210EEF0A3EFF09002A1F2
:100A6200E0C313FF9002A5E02FFF9002A4E0340040
:100A7200FE900210E0FCA3E0FDC39FEC9E40030247
:100A82000B20E49002A0F090029FF0EC704FED1466
:100A9200601A14602414602E1460352404703E9091
:100AA2000270E090029FF090026F802C121820E4F6
:100AB20090029FF0900271801F900273E090029F5B
:100AC200F09002728012E490029FF090027480080B
:100AD200E490029FF0900275E09002A0F090029FD5
:100AE200E0FF9002A2E0FE04F0740A2EF582E434E4
:100AF20001F583EFF09002A0E0FF9002A2E0FE0475
:100B0200F0740A2EF582E43401F583EFF0900211BD
:100B1200E004F07006900210E004F0020A5F900216
:0A0B2200A1E02403FD7F04020FFC94
:100F4300900084E024FD6012146021146027146073
:100F53005D147003020FEA020FF590018EE0900218
:100F63007BF090018FE090027A020FF190018FE005
:100F730090027C807990018FE0FE540790027DF00F
:100F830090018EE0FC5401C43354E0FDEE131313BF
:100F9300541F4D90027EF0EC547FC313A3F09001D5
:100FA3008EE0C41313135401900280F08044900127
:100FB3008FE0FE5407900281F090018EE0FC540113
:100FC300C43354E0FDEE131313541F4D900282F00B
:100FD300EC547FC313A3F090018EE0FFC4131313EB
:100FE3005401900284800790018FE0900285F012F3
:090FF3000C0C7D087F06020FFCC6
:1010B20090018DE0B40900400302115A9010C5F866
:1010C2002828730210E00210F10210FF02110D0233
:1010D200111902112402113002113C02114890012F
:1010E2008EE0900277F090018FE0900276805E9021
:1010F200018FE0FF900278F0121857805190018F13
:10110200E0FF900279F0121810804390018EE0FD0A
:10111200A3E0FB7F03802C90018FE0FBE4FD7F04C2
:10112200802190018EE0FDA3E0FB7F0580159001F8
:101132008EE0FDA3E0FB7F06800990018FE0FBE4D7
:10114200FD7F070214EB90018FE0900286F07D088C
:091152007F06120FFC120C0C22A6
:070003009001087401F022D6
:050E8000900210EDF0EE
:100E8500EF24FC600F24FE604F24F66064240D609F
:100E950003020F307B017A007901900210E0FD1208
:100EA500002A900211EEF0A3EFF0900211E0FEA3EC
:100EB500E0FD900210E0FC2402F582E43400F583A5
:100EC500EDF0EEFF74012CF582E43400F583EFF0CC
:100ED500900210E02402804F78017C007D017B01A7
:100EE5007A0079817E007F081204D3900210E08099
:100EF5003678017C007D017B017A0079817E007F57
:100F0500061204D37A007901120026900211EEF040
:100F1500A3EFF0900211E0FEA3E0900008F0EE9040
:100F25000007F0900210E0900101F0D2847F027E6C
:0E0F3500001216BF4384027F017E000216BF29
:050FFC00900212EDF06F
:10100100EF24FC600F24FE604F24F66064240D6021
:10101100030210A97B017A01790A900212E0FD1204
:10102100002A900213EEF0A3EFF0900213E0FCA36C
:10103100E0FDECFF900212E0FE240BF582E43401A6
:10104100F583EFF0740A2EF582E43401F583EDF0B7
:10105100900212E02402804C780A7C017D017B0120
:101061007A01798A7E007F081204D3900212E0800F
:1010710033780A7C017D017B017A01798A7E007FC8
:10108100061204D37A01790A120026900213EEF0B7
:10109100A3EFF0900213E0FEA3E0900110F0EEF058
:1010A100900212E090020AF0D2997F017E000216AE
:0110B100BF7F
:040026007B017D06D7
:05002A00900223EDF03F
:10002F0074FFA3F0A3F01204F9FF900224E0F0A3F1
:10003F00E06FF0E4FD900224E0FEA3E0FF30E01952
:10004F00EEC313FEEF13FFEE64A0FEEF6401FF900B
:10005F000224EEF0A3EFF0800B900224E0C313F024
:10006F00A3E013F00DEDB408CC740129F9E43AFACA
:0E007F00900223E014F070AEA3E0FEA3E0FFB9
:01008D002250
:10182000209706E4900271F0229002717401F02278
:100B2C0090021074EBF0A37410F0E4A3F0A3F0A304
:100B3C00F0A37405F0A3740AF090027BE090021706
:100B4C00F090027AE0900218F0E4A3F090027CE0BE
:100B5C0090021AF090027FE025E0FF90027EE0FE0A
:100B6C00C41354074FFF900280E0C43333335480D6
:100B7C004F90021BF0EE33333354F8FF90027DE0BC
:100B8C004F90021CF0900283E025E0FF900282E07F
:100B9C00FEC41354074FFF900284E0C43333335424
:100BAC00804F90021DF0EE33333354F8FF900281E6
:100BBC00E04F90021EF0E4A3F0900285E09002203A
:100BCC00F07B017A0279107D1112002AAC06EC90B0
:100BDC000221F0A3EFF078017C007D017A027910FC
:100BEC007E007F131204D39001017413F0D2847F22
:100BFC00027E001216BF4384027F017E000216BFE4
:1014EB0090021074EBF0A37406F0E4A3F0A3EFF0FA
:1014FB00A3EDF0A3EBF07B017A0279107D061200CD
:10150B002AAC06EC900216F0A3EFF078017C007D7C
:10151B00017A0279107E007F081204D390010174C6
:10152B0008F0D2847F027E001216BF4384027F0133
:05153B007E000216BF56
:1015930090021074EBF0A37404F0E4A3F0A3F0A39F
:1015A300F0A37404F0A314F0A374E7F078017C00B3
:1015B3007D017B017A0279107E007F081204D390AB
:1015C30001017408F0D2847F027E001216BF4384A7
:0815D300027F017E000216BF39
:030000000211F5F5
:0C11F500787FE4F6D8FD75812102123CE1
:10040300E709F608DFFA8046E709F208DFFA803EDB
:1004130088828C83E709F0A3DFFA8032E309F608C8
:10042300DFFA8078E309F208DFFA807088828C8330
:10043300E309F0A3DFFA806489828A83E0A3F608E4
:10044300DFFA805889828A83E0A3F208DFFA804CBE
:1004530080D280FA80C680D4806980F28033801095
:1004630080A680EA809A80A880DA80E280CA8033FE
:1004730089828A83ECFAE493A3C8C582C8CCC58376
:10048300CCF0A3C8C582C8CCC583CCDFE9DEE78046
:100493000D89828A83E493A3F608DFF9ECFAA9F0C5
:1004A300EDFB2289828A83ECFAE0A3C8C582C8CC1B
:1004B300C583CCF0A3C8C582C8CCC583CCDFEADE34
:1004C300E880DB89828A83E493A3F208DFF980CC96
:1004D30088F0EF60010E4E60C388F0ED2402B4048F
:1004E3000050B9F582EB2402B4040050AF23234536
:0604F30082239004537304
:1004F900BB010689828A83E0225002E722BBFE0201
:09050900E32289828A83E4932233
:10051200EF8DF0A4A8F0CF8CF0A428CE8DF0A42EFD
:02052200FE22B7
:10052400BC000BBE0029EF8DF084FFADF022E4CCBB
:10053400F875F008EF2FFFEE33FEEC33FCEE9DEC84
:10054400984005FCEE9DFE0FD5F0E9E4CEFD22EDCA
:10055400F8F5F0EE8420D21CFEADF075F008EF2F14
:10056400FFED33FD4007985006D5F0F222C398FD05
:050574000FD5F0EA22A2
:10057900BB0110E58229F582E5833AF583E0F5F0C0
:10058900A3E0225009E92582F886F008E622BBFE9D
:100599000AE92582F8E2F5F008E222E5832AF583E3
:0805A900E993F5F0A3E99322A8
:1005B100F8BB0111E58229F582E5833AF583E8F07C
:1005C100E5F0A3F0225009E92582C8F608A6F02239
:0D05D100BBFE09E92582C8F2E5F008F22220
:10009E00E508244AF582E43402F583E0050822904F
:1000AE00024730070390024AE475F00112061D0262
:1000BE0004F92000E97F2ED2008018EF540F24900F
:1000CE00D43440D4FF30040BEF24BFB41A005003D5
:1000DE002461FFE50960021509050CE50C700205A7
:1000EE000B30070E900247E475F00112061DEF0269
:1000FE00060B02184C7403D2078003E4C207F508FE
:10010E00900247120634E4F509F50BF50CE509608B
:10011E00077F201200E180F5750AFFC201C200C2FE
:10012E0002C203C205C206C2081200ADFF700D3036
:10013E0007057F001200F2AF0CAE0B22B4255FC292
:10014E00D5C2041200ADFF24D0B40A00501A75F0C7
:10015E000A780930D50508B6FF0106C6A426F62092
:10016E00D5047002D20380D924CFB41A00EF500404
:10017E00C2E5D2040202F3D20180C6D20080C0D200
:10018E000280BCD2D580BAD20580B47F201200E1A5
:10019E002002077401B5090040F112009EFF120003
:1001AE00E102011BD208D206809512009EFB1200BE
:1001BE009EFA12009EF94A4B700679C47A037BFFB1
:1001CE0020022EE509602A7E008E827583001205BC
:1001DE00DE60060EEE650A70F0C2D5EBC0E0EAC036
:1001EE00E0E9C0E0EE12033AD0E0F9D0E0FAD0E058
:1001FE00FB1204F9FF60AAEBC0E0EAC0E0E9C0E040
:10020E001200E1D0E02401F9D0E03400FAD0E0FB96
:10021E00E50A0460DCD50AD980877BFF7A0379363C
:10022E00D202809C791080027908C206C20880082A
:10023E00D2D5790A8004790AC2D5E50A047002F58E
:10024E000AE4FAFDFEFF12009EFC7B082001131249
:10025E00009EFD7B1030000A12009EFE12009EFFD3
:10026E007B20EC3382D592D55013C3E43000069F29
:10027E00FFE49EFEE42001039DFDE49CFCE4CBF82C
:10028E00C201EC700CCFCECDCCE824F8F870F38020
:10029E0017C3EF33FFEE33FEED33FDEC33FCEB33E0
:1002AE00FB994002FB0FD8E9EB300105F8D0E0C412
:1002BE0048B201C0E00AEC4D4E4F78207B0070C270
:1002CE00EAB50A0040BCC0E012033CD0F0D0E020FA
:1002DE000104C4C0E0C4B201C0F01200CAD0F0D50F
:1002EE00F0EB02011B12063D01B853023258018990
:1002FE004C01854202364F023E44023E49019E4366
:08030E000244550228460228B2
:100316004502284703E450018D2D01912E01B42B8F
:1003260001952301B22003CD2A014D48000001ACFE
:100336003F3F3F00790AA2D5200314300509B910C2
:10034600020404B9080104A2D520060250010420C3
:1003560002689202B509005034C0E07F20300319CC
:100366007F30A20272067205500F120393C202C2B8
:1003760006C205C2087F30800F300503E9C0E012CF
:1003860000E1300503D0E0F9D0E0B509CC3005171F
:100396007F30B9100C1200E17F583004077F788057
:1003A60003B908031200E13002057F2D0200E17F48
:1003B600202008F87F2B2006F322920280CF286E99
:1003C600756C6C2900D20112009E3001F8C20178CA
:1003D6000930D50108F602014D2D50434958120047
:1003E6009E2403B405004001E49003DF931200D27B
:0D03F600743A1200D2D203750904020232DB
:10120100021439E493A3F8E493A34003F68001F2B6
:1012110008DFF48029E493A3F85407240CC8C333EE
:10122100C4540F4420C8834004F456800146F6DFBD
:10123100E4800B0102040810204080901830E47E05
:10124100019360BCA3FF543F30E509541FFEE493B2
:10125100A360010ECF54C025E060A840B8E493A379
:10126100FAE493A3F8E493A3C8C582C8CAC583CAA4
:10127100F0A3C8C582C8CAC583CADFE9DEE780BE5C
:01183E0000A9
:1005DE00BB010CE58229F582E5833AF583E02250D2
:1005EE0006E92582F8E622BBFE06E92582F8E2221C
:0D05FE00E58229F582E5833AF583E4932236
:10060B00BB010689828A83F0225002F722BBFE01CE
:02061B00F322C8
:10061D00F8E0FBA3A3E0F925F0F0E5821582700266
:07062D001583E0FA38F0220A
:09063400EBF0A3EAF0A3E9F022C7
:10063D00D083D082F8E4937012740193700DA3A34C
:10064D0093F8740193F5828883E473740293686060
:06065D00EFA3A3A380DF60
:00000001FF
